{
  "contractName": "Auction",
  "abi": [
    {
      "inputs": [
        {
          "name": "_owner",
          "type": "address"
        },
        {
          "name": "_verifier",
          "type": "address"
        }
      ],
      "payable": false,
      "stateMutability": "nonpayable",
      "type": "constructor"
    },
    {
      "anonymous": false,
      "inputs": [
        {
          "indexed": false,
          "name": "execution_id",
          "type": "uint256"
        },
        {
          "indexed": false,
          "name": "success",
          "type": "bool"
        }
      ],
      "name": "VerifyAndSettle",
      "type": "event"
    },
    {
      "constant": false,
      "inputs": [
        {
          "name": "encryptedVote",
          "type": "uint256[4]"
        },
        {
          "name": "encryptedRandom",
          "type": "uint256[4]"
        }
      ],
      "name": "submitInput",
      "outputs": [],
      "payable": false,
      "stateMutability": "nonpayable",
      "type": "function"
    },
    {
      "constant": false,
      "inputs": [
        {
          "name": "commitPart1",
          "type": "uint128"
        },
        {
          "name": "commitPart2",
          "type": "uint128"
        }
      ],
      "name": "submitCommit",
      "outputs": [],
      "payable": true,
      "stateMutability": "payable",
      "type": "function"
    },
    {
      "constant": false,
      "inputs": [
        {
          "name": "encryptedVote",
          "type": "uint256[4]"
        },
        {
          "name": "encryptedRandom",
          "type": "uint256[4]"
        },
        {
          "name": "commitPart1",
          "type": "uint128"
        },
        {
          "name": "commitPart2",
          "type": "uint128"
        }
      ],
      "name": "submitCommitAndInput",
      "outputs": [],
      "payable": true,
      "stateMutability": "payable",
      "type": "function"
    },
    {
      "constant": true,
      "inputs": [],
      "name": "isCommitFinished",
      "outputs": [
        {
          "name": "",
          "type": "bool"
        }
      ],
      "payable": false,
      "stateMutability": "view",
      "type": "function"
    },
    {
      "constant": true,
      "inputs": [],
      "name": "isOpenFinished",
      "outputs": [
        {
          "name": "",
          "type": "bool"
        }
      ],
      "payable": false,
      "stateMutability": "view",
      "type": "function"
    },
    {
      "constant": true,
      "inputs": [
        {
          "name": "user",
          "type": "address"
        }
      ],
      "name": "isInputSubmitted",
      "outputs": [
        {
          "name": "",
          "type": "bool"
        }
      ],
      "payable": false,
      "stateMutability": "view",
      "type": "function"
    },
    {
      "constant": true,
      "inputs": [
        {
          "name": "user",
          "type": "address"
        }
      ],
      "name": "isCommitSubmitted",
      "outputs": [
        {
          "name": "",
          "type": "bool"
        }
      ],
      "payable": false,
      "stateMutability": "view",
      "type": "function"
    },
    {
      "constant": true,
      "inputs": [],
      "name": "getInputAndCommitment",
      "outputs": [
        {
          "name": "",
          "type": "uint256[]"
        }
      ],
      "payable": false,
      "stateMutability": "view",
      "type": "function"
    },
    {
      "constant": true,
      "inputs": [],
      "name": "getUserCount",
      "outputs": [
        {
          "name": "",
          "type": "uint256"
        }
      ],
      "payable": false,
      "stateMutability": "view",
      "type": "function"
    },
    {
      "constant": true,
      "inputs": [],
      "name": "getOpenCount",
      "outputs": [
        {
          "name": "",
          "type": "uint256"
        }
      ],
      "payable": false,
      "stateMutability": "view",
      "type": "function"
    },
    {
      "constant": true,
      "inputs": [],
      "name": "getResult",
      "outputs": [
        {
          "name": "",
          "type": "address"
        }
      ],
      "payable": false,
      "stateMutability": "view",
      "type": "function"
    },
    {
      "constant": true,
      "inputs": [],
      "name": "getSingleExecutionCommitmentSize",
      "outputs": [
        {
          "name": "",
          "type": "uint256"
        }
      ],
      "payable": false,
      "stateMutability": "view",
      "type": "function"
    },
    {
      "constant": true,
      "inputs": [],
      "name": "getProvingKeyPath",
      "outputs": [
        {
          "name": "",
          "type": "string"
        }
      ],
      "payable": false,
      "stateMutability": "view",
      "type": "function"
    },
    {
      "constant": true,
      "inputs": [],
      "name": "getVariablesPath",
      "outputs": [
        {
          "name": "",
          "type": "string"
        }
      ],
      "payable": false,
      "stateMutability": "view",
      "type": "function"
    },
    {
      "constant": true,
      "inputs": [],
      "name": "getCodePath",
      "outputs": [
        {
          "name": "",
          "type": "string"
        }
      ],
      "payable": false,
      "stateMutability": "view",
      "type": "function"
    },
    {
      "constant": true,
      "inputs": [],
      "name": "getAbiPath",
      "outputs": [
        {
          "name": "",
          "type": "string"
        }
      ],
      "payable": false,
      "stateMutability": "view",
      "type": "function"
    },
    {
      "constant": true,
      "inputs": [],
      "name": "getProvingKeySha2",
      "outputs": [
        {
          "name": "",
          "type": "uint256"
        }
      ],
      "payable": false,
      "stateMutability": "view",
      "type": "function"
    },
    {
      "constant": true,
      "inputs": [],
      "name": "getCodeSha2",
      "outputs": [
        {
          "name": "",
          "type": "uint256"
        }
      ],
      "payable": false,
      "stateMutability": "view",
      "type": "function"
    },
    {
      "constant": true,
      "inputs": [],
      "name": "getVariablesSha2",
      "outputs": [
        {
          "name": "",
          "type": "uint256"
        }
      ],
      "payable": false,
      "stateMutability": "view",
      "type": "function"
    },
    {
      "constant": true,
      "inputs": [],
      "name": "getAbiSha2",
      "outputs": [
        {
          "name": "",
          "type": "uint256"
        }
      ],
      "payable": false,
      "stateMutability": "view",
      "type": "function"
    },
    {
      "constant": true,
      "inputs": [],
      "name": "getIsGameOver",
      "outputs": [
        {
          "name": "",
          "type": "bool"
        }
      ],
      "payable": false,
      "stateMutability": "view",
      "type": "function"
    },
    {
      "constant": false,
      "inputs": [
        {
          "name": "execution_id",
          "type": "uint256"
        },
        {
          "name": "a",
          "type": "uint256[2]"
        },
        {
          "name": "a_p",
          "type": "uint256[2]"
        },
        {
          "name": "b",
          "type": "uint256[2][2]"
        },
        {
          "name": "b_p",
          "type": "uint256[2]"
        },
        {
          "name": "c",
          "type": "uint256[2]"
        },
        {
          "name": "c_p",
          "type": "uint256[2]"
        },
        {
          "name": "h",
          "type": "uint256[2]"
        },
        {
          "name": "k",
          "type": "uint256[2]"
        },
        {
          "name": "input",
          "type": "uint256[2]"
        }
      ],
      "name": "verifyAndSettle",
      "outputs": [],
      "payable": false,
      "stateMutability": "nonpayable",
      "type": "function"
    }
  ],
  "bytecode": "0x60806040526000600655600060075560056008556000600960146101000a81548160ff0219169083151502179055506000600a55603c600b55603c600c556005600d55606060405190810160405280603881526020017f68747470733a2f2f73332e616d617a6f6e6177732e636f6d2f6f7269676f2e6581526020017f78656375746f722f6d6178352f70726f76696e672e6b65790000000000000000815250600e9080519060200190620000b69291906200039f565b50608060405190810160405280604281526020017f68747470733a2f2f73332e616d617a6f6e6177732e636f6d2f6f7269676f2e6581526020017f78656375746f722f6d6178352f6d6178355f656d7074795f696e7075742e636f81526020017f6465000000000000000000000000000000000000000000000000000000000000815250600f9080519060200190620001519291906200039f565b50606060405190810160405280603a81526020017f68747470733a2f2f73332e616d617a6f6e6177732e636f6d2f6f7269676f2e6581526020017f78656375746f722f6d6178352f7661726961626c65732e696e6600000000000081525060109080519060200190620001c69291906200039f565b50606060405190810160405280603581526020017f68747470733a2f2f73332e616d617a6f6e6177732e636f6d2f6f7269676f2e6581526020017f78656375746f722f6d6178352f6d6178352e6162690000000000000000000000815250601190805190602001906200023b9291906200039f565b507fb8c55b2d11f2e66e744b0369c5a270005fa732f3fcfb002b62e2f715efc768f46012557f6350768aa7a67496e3ea1fde1f01eaca223d78090c3f5736bd2a5255c99951296013557f9ff1c238ba02d8268f07dcd2e5bac117388cfcceeac4c770217a64add435b6af6014557f7aea3c7cd4c8eab4bc81a2b047626393aeb4822b2c0d7466e7f6af5f7da5e8ac601555348015620002d957600080fd5b50604051604080620023b983398101806040526040811015620002fb57600080fd5b810190808051906020019092919080519060200190929190505050816000806101000a81548173ffffffffffffffffffffffffffffffffffffffff021916908373ffffffffffffffffffffffffffffffffffffffff16021790555080600160006101000a81548173ffffffffffffffffffffffffffffffffffffffff021916908373ffffffffffffffffffffffffffffffffffffffff16021790555050506200044e565b828054600181600116156101000203166002900490600052602060002090601f016020900481019282601f10620003e257805160ff191683800117855562000413565b8280016001018555821562000413579182015b8281111562000412578251825591602001919060010190620003f5565b5b50905062000422919062000426565b5090565b6200044b91905b80821115620004475760008160009055506001016200042d565b5090565b90565b611f5b806200045e6000396000f3fe608060405260043610610128576000357c0100000000000000000000000000000000000000000000000000000000900463ffffffff1680630a944d611461012d5780630f168b53146101bd5780631bcba54d146101e85780633bed674f146102135780633c457515146102a35780633dee1b5f146103335780635376e6fe1461035e57806360ee0ab21461061b57806366f8af6f146106ab5780636a4331b0146107175780636e1e41ca146107425780636f0fe789146107f657806377d69b421461085f57806379e458331461088a5780637de94236146108e6578063a7bbd19114610915578063aef8276614610940578063b5cb15f7146109a9578063b7fdcd46146109d4578063de29278914610ab3578063e4824c5514610b0a578063edcd458114610b39575b600080fd5b34801561013957600080fd5b50610142610b68565b6040518080602001828103825283818151815260200191508051906020019080838360005b83811015610182578082015181840152602081019050610167565b50505050905090810190601f1680156101af5780820380516001836020036101000a031916815260200191505b509250505060405180910390f35b3480156101c957600080fd5b506101d2610c0a565b6040518082815260200191505060405180910390f35b3480156101f457600080fd5b506101fd610c14565b6040518082815260200191505060405180910390f35b34801561021f57600080fd5b50610228610c1e565b6040518080602001828103825283818151815260200191508051906020019080838360005b8381101561026857808201518184015260208101905061024d565b50505050905090810190601f1680156102955780820380516001836020036101000a031916815260200191505b509250505060405180910390f35b3480156102af57600080fd5b506102b8610cc0565b6040518080602001828103825283818151815260200191508051906020019080838360005b838110156102f85780820151818401526020810190506102dd565b50505050905090810190601f1680156103255780820380516001836020036101000a031916815260200191505b509250505060405180910390f35b34801561033f57600080fd5b50610348610d62565b6040518082815260200191505060405180910390f35b34801561036a57600080fd5b5061061960048036036102a081101561038257600080fd5b810190808035906020019092919080604001906002806020026040519081016040528092919082600260200280828437600081840152601f19601f820116905080830192505050505050919291929080604001906002806020026040519081016040528092919082600260200280828437600081840152601f19601f82011690508083019250505050505091929192908060800190600280602002604051908101604052809291906000905b82821015610482578382604002016002806020026040519081016040528092919082600260200280828437600081840152601f19601f8201169050808301925050505050508152602001906001019061042e565b50505050919291929080604001906002806020026040519081016040528092919082600260200280828437600081840152601f19601f820116905080830192505050505050919291929080604001906002806020026040519081016040528092919082600260200280828437600081840152601f19601f820116905080830192505050505050919291929080604001906002806020026040519081016040528092919082600260200280828437600081840152601f19601f820116905080830192505050505050919291929080604001906002806020026040519081016040528092919082600260200280828437600081840152601f19601f820116905080830192505050505050919291929080604001906002806020026040519081016040528092919082600260200280828437600081840152601f19601f820116905080830192505050505050919291929080604001906002806020026040519081016040528092919082600260200280828437600081840152601f19601f8201169050808301925050505050509192919290505050610d6c565b005b34801561062757600080fd5b50610630611335565b6040518080602001828103825283818151815260200191508051906020019080838360005b83811015610670578082015181840152602081019050610655565b50505050905090810190601f16801561069d5780820380516001836020036101000a031916815260200191505b509250505060405180910390f35b3480156106b757600080fd5b506106c06113d7565b6040518080602001828103825283818151815260200191508051906020019060200280838360005b838110156107035780820151818401526020810190506106e8565b505050509050019250505060405180910390f35b34801561072357600080fd5b5061072c6117fd565b6040518082815260200191505060405180910390f35b34801561074e57600080fd5b506107f4600480360361010081101561076657600080fd5b8101908080608001906004806020026040519081016040528092919082600460200280828437600081840152601f19601f820116905080830192505050505050919291929080608001906004806020026040519081016040528092919082600460200280828437600081840152601f19601f8201169050808301925050505050509192919290505050611807565b005b34801561080257600080fd5b506108456004803603602081101561081957600080fd5b81019080803573ffffffffffffffffffffffffffffffffffffffff169060200190929190505050611999565b604051808215151515815260200191505060405180910390f35b34801561086b57600080fd5b506108746119f9565b6040518082815260200191505060405180910390f35b6108e4600480360360408110156108a057600080fd5b8101908080356fffffffffffffffffffffffffffffffff16906020019092919080356fffffffffffffffffffffffffffffffff169060200190929190505050611a03565b005b3480156108f257600080fd5b506108fb611cea565b604051808215151515815260200191505060405180910390f35b34801561092157600080fd5b5061092a611d42565b6040518082815260200191505060405180910390f35b34801561094c57600080fd5b5061098f6004803603602081101561096357600080fd5b81019080803573ffffffffffffffffffffffffffffffffffffffff169060200190929190505050611d4c565b604051808215151515815260200191505060405180910390f35b3480156109b557600080fd5b506109be611dac565b6040518082815260200191505060405180910390f35b610ab160048036036101408110156109eb57600080fd5b8101908080608001906004806020026040519081016040528092919082600460200280828437600081840152601f19601f820116905080830192505050505050919291929080608001906004806020026040519081016040528092919082600460200280828437600081840152601f19601f820116905080830192505050505050919291929080356fffffffffffffffffffffffffffffffff16906020019092919080356fffffffffffffffffffffffffffffffff169060200190929190505050611db6565b005b348015610abf57600080fd5b50610ac8611dd0565b604051808273ffffffffffffffffffffffffffffffffffffffff1673ffffffffffffffffffffffffffffffffffffffff16815260200191505060405180910390f35b348015610b1657600080fd5b50610b1f611dfa565b604051808215151515815260200191505060405180910390f35b348015610b4557600080fd5b50610b4e611e11565b604051808215151515815260200191505060405180910390f35b6060600e8054600181600116156101000203166002900480601f016020809104026020016040519081016040528092919081815260200182805460018160011615610100020316600290048015610c005780601f10610bd557610100808354040283529160200191610c00565b820191906000526020600020905b815481529060010190602001808311610be357829003601f168201915b5050505050905090565b6000601554905090565b6000601354905090565b606060108054600181600116156101000203166002900480601f016020809104026020016040519081016040528092919081815260200182805460018160011615610100020316600290048015610cb65780601f10610c8b57610100808354040283529160200191610cb6565b820191906000526020600020905b815481529060010190602001808311610c9957829003601f168201915b5050505050905090565b606060118054600181600116156101000203166002900480601f016020809104026020016040519081016040528092919081815260200182805460018160011615610100020316600290048015610d585780601f10610d2d57610100808354040283529160200191610d58565b820191906000526020600020905b815481529060010190602001808311610d3b57829003601f168201915b5050505050905090565b6000601254905090565b60008a90506060600280600d540201604051908082528060200260200182016040528015610da95781602001602082028038833980820191505090505b50905060008090505b600d54811015610f455760028054905081600d548502011015610f38576000600282600d54860201815481101515610de657fe5b9060005260206000200160009054906101000a900473ffffffffffffffffffffffffffffffffffffffff169050600360008273ffffffffffffffffffffffffffffffffffffffff1673ffffffffffffffffffffffffffffffffffffffff16815260200190815260200160002060000160019054906101000a90046fffffffffffffffffffffffffffffffff166fffffffffffffffffffffffffffffffff168360028402815181101515610e9557fe5b9060200190602002018181525050600360008273ffffffffffffffffffffffffffffffffffffffff1673ffffffffffffffffffffffffffffffffffffffff16815260200190815260200160002060010160009054906101000a90046fffffffffffffffffffffffffffffffff166fffffffffffffffffffffffffffffffff168360016002850201815181101515610f2857fe5b9060200190602002018181525050505b8080600101915050610db2565b5060008090505b6002811015610f98578381600281101515610f6357fe5b602002015182826002600d540201815181101515610f7d57fe5b90602001906020020181815250508080600101915050610f4c565b50600160009054906101000a900473ffffffffffffffffffffffffffffffffffffffff1673ffffffffffffffffffffffffffffffffffffffff1663c8e6ba4d8c8c8c8c8c8c8c8c8a6040518a63ffffffff167c0100000000000000000000000000000000000000000000000000000000028152600401808a600260200280838360005b8381101561103657808201518184015260208101905061101b565b5050505090500189600260200280838360005b83811015611064578082015181840152602081019050611049565b505050509050018860026000925b818410156110b85782846020020151600260200280838360005b838110156110a757808201518184015260208101905061108c565b505050509050019260010192611072565b9250505087600260200280838360005b838110156110e35780820151818401526020810190506110c8565b5050505090500186600260200280838360005b838110156111115780820151818401526020810190506110f6565b5050505090500185600260200280838360005b8381101561113f578082015181840152602081019050611124565b5050505090500184600260200280838360005b8381101561116d578082015181840152602081019050611152565b5050505090500183600260200280838360005b8381101561119b578082015181840152602081019050611180565b5050505090500180602001828103825283818151815260200191508051906020019060200280838360005b838110156111e15780820151818401526020810190506111c6565b505050509050019a5050505050505050505050602060405180830381600087803b15801561120e57600080fd5b505af1158015611222573d6000803e3d6000fd5b505050506040513d602081101561123857600080fd5b8101908080519060200190929190505050156112e2577f514f94dcac00454772536a03b47be6e03d0d3f036d6ca95df8bb2bf9bdc14a9282600160405180838152602001821515151581526020019250505060405180910390a16001600960146101000a81548160ff0219169083151502179055506112dd8360006002811015156112bf57fe5b60200201518460016002811015156112d357fe5b6020020151611e3e565b611327565b7f514f94dcac00454772536a03b47be6e03d0d3f036d6ca95df8bb2bf9bdc14a9282600060405180838152602001821515151581526020019250505060405180910390a15b505050505050505050505050565b6060600f8054600181600116156101000203166002900480601f0160208091040260200160405190810160405280929190818152602001828054600181600116156101000203166002900480156113cd5780601f106113a2576101008083540402835291602001916113cd565b820191906000526020600020905b8154815290600101906020018083116113b057829003601f168201915b5050505050905090565b60606113e1611cea565b151561147b576040517f08c379a00000000000000000000000000000000000000000000000000000000081526004018080602001828103825260378152602001807f4e6f7420616c6c207573657273206f70656e20746865697220696e707574732081526020017f616e642069742773206e6f742074696d6564206f75742e00000000000000000081525060400191505060405180910390fd5b6000600d54600d546001600d54600280549050010381151561149957fe5b040290506060600982026040519080825280602002602001820160405280156114d15781602001602082028038833980820191505090505b50905060008090505b6002805490508110156117f45760008090505b600481101561165c576004600060028481548110151561150957fe5b9060005260206000200160009054906101000a900473ffffffffffffffffffffffffffffffffffffffff1673ffffffffffffffffffffffffffffffffffffffff1673ffffffffffffffffffffffffffffffffffffffff1681526020019081526020016000206001018160048110151561157e57fe5b01548382600985020181518110151561159357fe5b9060200190602002018181525050600460006002848154811015156115b457fe5b9060005260206000200160009054906101000a900473ffffffffffffffffffffffffffffffffffffffff1673ffffffffffffffffffffffffffffffffffffffff1673ffffffffffffffffffffffffffffffffffffffff1681526020019081526020016000206005018160048110151561162957fe5b01548382600460098602010181518110151561164157fe5b906020019060200201818152505080806001019150506114ed565b506003600060028381548110151561167057fe5b9060005260206000200160009054906101000a900473ffffffffffffffffffffffffffffffffffffffff1673ffffffffffffffffffffffffffffffffffffffff1673ffffffffffffffffffffffffffffffffffffffff16815260200190815260200160002060010160009054906101000a90046fffffffffffffffffffffffffffffffff166fffffffffffffffffffffffffffffffff167001000000000000000000000000000000006003600060028581548110151561172c57fe5b9060005260206000200160009054906101000a900473ffffffffffffffffffffffffffffffffffffffff1673ffffffffffffffffffffffffffffffffffffffff1673ffffffffffffffffffffffffffffffffffffffff16815260200190815260200160002060000160019054906101000a90046fffffffffffffffffffffffffffffffff166fffffffffffffffffffffffffffffffff16020182600860098402018151811015156117d957fe5b906020019060200201818152505080806001019150506114da565b50809250505090565b6000601454905090565b60001515600460003373ffffffffffffffffffffffffffffffffffffffff1673ffffffffffffffffffffffffffffffffffffffff16815260200190815260200160002060000160009054906101000a900460ff1615151415156118d2576040517f08c379a00000000000000000000000000000000000000000000000000000000081526004018080602001828103825260208152602001807f596f75206861766520616c7265616479207375626d6974656420696e7075742181525060200191505060405180910390fd5b60606040519081016040528060011515815260200183815260200182815250600460003373ffffffffffffffffffffffffffffffffffffffff1673ffffffffffffffffffffffffffffffffffffffff16815260200190815260200160002060008201518160000160006101000a81548160ff021916908315150217905550602082015181600101906004611967929190611eca565b5060408201518160050190600461197f929190611eca565b509050506007600081548092919060010191905055505050565b600060011515600360008473ffffffffffffffffffffffffffffffffffffffff1673ffffffffffffffffffffffffffffffffffffffff16815260200190815260200160002060000160009054906101000a900460ff161515149050919050565b6000600754905090565b60001515600360003373ffffffffffffffffffffffffffffffffffffffff1673ffffffffffffffffffffffffffffffffffffffff16815260200190815260200160002060000160009054906101000a900460ff161515141515611af4576040517f08c379a00000000000000000000000000000000000000000000000000000000081526004018080602001828103825260268152602001807f596f75206861766520616c7265616479207375626d6974656420636f6d6d697481526020017f6d656e747321000000000000000000000000000000000000000000000000000081525060400191505060405180910390fd5b606060405190810160405280600115158152602001836fffffffffffffffffffffffffffffffff168152602001826fffffffffffffffffffffffffffffffff16815250600360003373ffffffffffffffffffffffffffffffffffffffff1673ffffffffffffffffffffffffffffffffffffffff16815260200190815260200160002060008201518160000160006101000a81548160ff02191690831515021790555060208201518160000160016101000a8154816fffffffffffffffffffffffffffffffff02191690836fffffffffffffffffffffffffffffffff16021790555060408201518160010160006101000a8154816fffffffffffffffffffffffffffffffff02191690836fffffffffffffffffffffffffffffffff16021790555090505060066000815480929190600101919050555060023390806001815401808255809150509060018203906000526020600020016000909192909190916101000a81548173ffffffffffffffffffffffffffffffffffffffff021916908373ffffffffffffffffffffffffffffffffffffffff1602179055505034600560003373ffffffffffffffffffffffffffffffffffffffff1673ffffffffffffffffffffffffffffffffffffffff168152602001908152602001600020819055506000600a541415611ce65742600a819055505b5050565b6000600960149054906101000a900460ff16158015611d3d57506000600654118015611d195750600754600854145b80611d3c57506000600a54118015611d3b5750600c54600b54600a5401014210155b5b5b905090565b6000600d54905090565b600060011515600460008473ffffffffffffffffffffffffffffffffffffffff1673ffffffffffffffffffffffffffffffffffffffff16815260200190815260200160002060000160009054906101000a900460ff161515149050919050565b6000600654905090565b611dc08282611a03565b611dca8484611807565b50505050565b6000600960009054906101000a900473ffffffffffffffffffffffffffffffffffffffff16905090565b6000600960149054906101000a900460ff16905090565b60006008546006541480611e3957506000600a54118015611e385750600b54600a54014210155b5b905090565b600082141515611ec657600260018303815481101515611e5a57fe5b9060005260206000200160009054906101000a900473ffffffffffffffffffffffffffffffffffffffff16600960006101000a81548173ffffffffffffffffffffffffffffffffffffffff021916908373ffffffffffffffffffffffffffffffffffffffff1602179055505b5050565b8260048101928215611ef9579160200282015b82811115611ef8578251825591602001919060010190611edd565b5b509050611f069190611f0a565b5090565b611f2c91905b80821115611f28576000816000905550600101611f10565b5090565b9056fea165627a7a723058204ac4ed3d42983911649c2e14212232f917a699c585047f75a0a12df5e909f1800029",
  "source": "pragma solidity ^0.5.0;\n\nimport \"./IVerifier.sol\";\n\ncontract Auction {\n  struct Commit {\n    bool hasCommit;\n    uint128 commitPart1;\n    uint128 commitPart2;\n  }\n\n  struct Input {\n    bool hasInput;\n    uint[4] encryptedVote;\n    uint[4] encryptedRandom;\n  }\n\n  address owner;\n  IVerifier verifier;\n  address[] users;\n  mapping (address => Commit) commits;\n  mapping (address => Input) inputs;\n  mapping (address => uint) balances;\n  uint userCount = 0;\n  uint openCount = 0;\n  uint maxUserCount = 5;\n  address winner;\n\n  bool isGameOver = false;\n  uint startTime = 0;\n  uint commitTimeout = 1 minutes;\n  uint openTimeout = 1 minutes;\n\n  uint256 single_execution_commitment_size = 5;\n\n  event VerifyAndSettle(uint execution_id, bool success);\n\n  string proving_key_path = \"https://s3.amazonaws.com/origo.executor/max5/proving.key\";\n  string code_path = \"https://s3.amazonaws.com/origo.executor/max5/max5_empty_input.code\";\n  string variables_path = \"https://s3.amazonaws.com/origo.executor/max5/variables.inf\";\n  string abi_path = \"https://s3.amazonaws.com/origo.executor/max5/max5.abi\";\n  uint256 pk_sha2 = 83574262285087747409869274578867297246033083182810418971158615318742077761780;\n  uint256 code_sha2 = 44921137919122833048385687679121061102645800642090071779680072055047123980585;\n  uint256 variables_sha2 = 72344893535488493447883533111635506465859174117969165997763546235039059916463;\n  uint256 abi_sha2 = 55596027210539693694777635839082215033061808174322349786920672458634072287404;\n\n  constructor(address _owner, address _verifier) public {\n    owner = _owner;\n    verifier = IVerifier(_verifier);\n  }\n\n  function submitInput(uint[4] memory encryptedVote, uint[4] memory encryptedRandom) public {\n    require(inputs[msg.sender].hasInput == false, \"You have already submited input!\");\n    inputs[msg.sender] = Input(true, encryptedVote, encryptedRandom);\n    openCount++;\n  }\n\n  function submitCommit(uint128 commitPart1, uint128 commitPart2) public payable {\n    require(commits[msg.sender].hasCommit == false, \"You have already submited commitments!\");\n    commits[msg.sender] = Commit(true, commitPart1, commitPart2);\n    userCount++;\n    users.push(msg.sender);\n    balances[msg.sender] = msg.value;\n\n    // In this case, the first user's commit means the start of the vote.\n    if (startTime == 0) {\n      startTime = block.timestamp;\n    }\n  }\n\n  function submitCommitAndInput(uint[4] memory encryptedVote, uint[4] memory encryptedRandom, uint128 commitPart1, uint128 commitPart2)\n   public payable {\n    submitCommit(commitPart1, commitPart2);\n    submitInput(encryptedVote, encryptedRandom);\n  }\n\n  function isCommitFinished() public view returns (bool) {\n    return userCount == maxUserCount || (startTime > 0 && block.timestamp >= startTime + commitTimeout);\n  }\n\n  function isOpenFinished() public view returns (bool) {\n    return !isGameOver && ((userCount > 0 && maxUserCount == openCount) || (startTime > 0 && block.timestamp >= startTime + commitTimeout + openTimeout));\n  }\n\n  function isInputSubmitted(address user) public view returns (bool) {\n    return inputs[user].hasInput == true;\n  }\n\n  function isCommitSubmitted(address user) public view returns (bool) {\n    return commits[user].hasCommit == true;\n  }\n\n  function getInputAndCommitment() public view returns (uint[] memory) {\n    require(isOpenFinished(), \"Not all users open their inputs and it's not timed out.\");\n    uint resultLength = ((users.length + single_execution_commitment_size - 1) / single_execution_commitment_size) * single_execution_commitment_size;\n    uint[] memory result = new uint[](resultLength * 9);\n    for (uint i = 0; i < users.length; i++) {\n      for (uint j = 0; j < 4; j++) {\n        result[i * 9 + j] = inputs[users[i]].encryptedVote[j];\n        result[i * 9 + 4 + j] = inputs[users[i]].encryptedRandom[j];\n      }\n      result[i * 9 + 8] = uint(commits[users[i]].commitPart1) * (2 ** 128) + uint(commits[users[i]].commitPart2);\n    }\n    return result;\n  }\n\n  function getUserCount() public view returns (uint) {\n    return userCount;\n  }\n\n  function getOpenCount() public view returns (uint) {\n    return openCount;\n  }\n\n  function getResult() public view returns (address) {\n    return winner;\n  }\n\n  function getSingleExecutionCommitmentSize() public view returns (uint) {\n    return single_execution_commitment_size;\n  }\n\n  function getProvingKeyPath() public view returns (string memory) {\n    return proving_key_path;\n  }\n\n  function getVariablesPath() public view returns (string memory) {\n    return variables_path;\n  }\n\n  function getCodePath() public view returns (string memory) {\n    return code_path;\n  }\n \n  function getAbiPath() public view returns (string memory) {\n    return abi_path;\n  }\n\n  function getProvingKeySha2() public view returns (uint256) {\n    return pk_sha2;\n  }\n\n  function getCodeSha2() public view returns (uint256) {\n    return code_sha2;\n  }\n\n  function getVariablesSha2() public view returns (uint256) {\n    return variables_sha2;\n  }\n\n  function getAbiSha2() public view returns (uint256) {\n    return abi_sha2;\n  }\n\n  function getIsGameOver() public view returns (bool) {\n    return isGameOver;\n  }\n\n  function settleResult(uint winnerIndex, uint bid) internal {\n    if (winnerIndex != 0) {\n      winner = users[winnerIndex - 1];\n    }\n  }\n\n  function verifyAndSettle(\n    uint execution_id,\n    uint[2] memory a,\n    uint[2] memory a_p,\n    uint[2][2] memory b,\n    uint[2] memory b_p,\n    uint[2] memory c,\n    uint[2] memory c_p,\n    uint[2] memory h,\n    uint[2] memory k,\n    uint[2] memory input) public {\n    uint _execution_id = execution_id;\n    uint[] memory inputValues = new uint[](single_execution_commitment_size * 2 + input.length);\n    for (uint i = 0; i < single_execution_commitment_size; i++) {\n      if (_execution_id * single_execution_commitment_size + i < users.length) {\n        address user = users[_execution_id * single_execution_commitment_size + i];\n        inputValues[i * 2] = uint(commits[user].commitPart1);\n        inputValues[i * 2 + 1] = uint(commits[user].commitPart2);\n      }\n    }\n    for (uint i = 0; i < input.length; i++) {\n      inputValues[single_execution_commitment_size * 2 + i] = input[i];\n    }\n\n    if (verifier.verifyTx(a, a_p, b, b_p, c, c_p, h, k, inputValues)) {\n      emit VerifyAndSettle(_execution_id, true);\n\n      isGameOver = true;\n      settleResult(input[0], input[1]);\n    } else {\n      emit VerifyAndSettle(_execution_id, false);\n    }\n  }\n}",
  "sourcePath": "/Users/weikui/Documents/source/python_related/origo-executor-example/example-app/contracts/Auction.sol",
  "compiler": {
    "name": "solc",
    "version": "0.5.0+commit.1d4f565a.Emscripten.clang"
  },
  "schemaVersion": "3.0.2",
  "updatedAt": "2020-01-30T19:41:00.002Z",
  "devdoc": {
    "methods": {}
  },
  "userdoc": {
    "methods": {}
  }
}