{
  "contractName": "AuctionFactory",
  "abi": [
    {
      "constant": true,
      "inputs": [
        {
          "name": "",
          "type": "uint256"
        }
      ],
      "name": "auctions",
      "outputs": [
        {
          "name": "",
          "type": "address"
        }
      ],
      "payable": false,
      "stateMutability": "view",
      "type": "function"
    },
    {
      "constant": true,
      "inputs": [],
      "name": "owner",
      "outputs": [
        {
          "name": "",
          "type": "address"
        }
      ],
      "payable": false,
      "stateMutability": "view",
      "type": "function"
    },
    {
      "constant": true,
      "inputs": [],
      "name": "auctionVerifier",
      "outputs": [
        {
          "name": "",
          "type": "address"
        }
      ],
      "payable": false,
      "stateMutability": "view",
      "type": "function"
    },
    {
      "inputs": [
        {
          "name": "_auctionVerifier",
          "type": "address"
        }
      ],
      "payable": false,
      "stateMutability": "nonpayable",
      "type": "constructor"
    },
    {
      "constant": false,
      "inputs": [],
      "name": "create",
      "outputs": [],
      "payable": false,
      "stateMutability": "nonpayable",
      "type": "function"
    },
    {
      "constant": true,
      "inputs": [],
      "name": "getContracts",
      "outputs": [
        {
          "name": "",
          "type": "address[]"
        }
      ],
      "payable": false,
      "stateMutability": "view",
      "type": "function"
    }
  ],
  "bytecode": "0x608060405234801561001057600080fd5b5060405160208061305f8339810180604052602081101561003057600080fd5b8101908080519060200190929190505050336000806101000a81548173ffffffffffffffffffffffffffffffffffffffff021916908373ffffffffffffffffffffffffffffffffffffffff16021790555080600160006101000a81548173ffffffffffffffffffffffffffffffffffffffff021916908373ffffffffffffffffffffffffffffffffffffffff16021790555050612f8d806100d26000396000f3fe608060405234801561001057600080fd5b50600436106100575760003560e01c8063571a26a01461005c5780638da5cb5b146100ca578063c3a2a93a14610114578063efc81a8c14610173578063f85ae6361461017d575b600080fd5b6100886004803603602081101561007257600080fd5b81019080803590602001909291905050506101c7565b604051808273ffffffffffffffffffffffffffffffffffffffff1673ffffffffffffffffffffffffffffffffffffffff16815260200191505060405180910390f35b6100d2610203565b604051808273ffffffffffffffffffffffffffffffffffffffff1673ffffffffffffffffffffffffffffffffffffffff16815260200191505060405180910390f35b61011c610228565b6040518080602001828103825283818151815260200191508051906020019060200280838360005b8381101561015f578082015181840152602081019050610144565b505050509050019250505060405180910390f35b61017b6102b6565b005b6101856104bc565b604051808273ffffffffffffffffffffffffffffffffffffffff1673ffffffffffffffffffffffffffffffffffffffff16815260200191505060405180910390f35b600281815481106101d457fe5b906000526020600020016000915054906101000a900473ffffffffffffffffffffffffffffffffffffffff1681565b6000809054906101000a900473ffffffffffffffffffffffffffffffffffffffff1681565b606060028054806020026020016040519081016040528092919081815260200182805480156102ac57602002820191906000526020600020905b8160009054906101000a900473ffffffffffffffffffffffffffffffffffffffff1673ffffffffffffffffffffffffffffffffffffffff1681526020019060010190808311610262575b5050505050905090565b6000809054906101000a900473ffffffffffffffffffffffffffffffffffffffff1673ffffffffffffffffffffffffffffffffffffffff163373ffffffffffffffffffffffffffffffffffffffff1614610378576040517f08c379a000000000000000000000000000000000000000000000000000000000815260040180806020018281038252601e8152602001807f6f6e6c79206f776e65722063616e206372656174652061756374696f6e2e000081525060200191505060405180910390fd5b60008060009054906101000a900473ffffffffffffffffffffffffffffffffffffffff16600160009054906101000a900473ffffffffffffffffffffffffffffffffffffffff166040516103cb906104e2565b808373ffffffffffffffffffffffffffffffffffffffff1673ffffffffffffffffffffffffffffffffffffffff1681526020018273ffffffffffffffffffffffffffffffffffffffff1673ffffffffffffffffffffffffffffffffffffffff16815260200192505050604051809103906000f080158015610450573d6000803e3d6000fd5b50905060028190806001815401808255809150509060018203906000526020600020016000909192909190916101000a81548173ffffffffffffffffffffffffffffffffffffffff021916908373ffffffffffffffffffffffffffffffffffffffff1602179055505050565b600160009054906101000a900473ffffffffffffffffffffffffffffffffffffffff1681565b612a72806104f08339019056fe60806040526000600655600060075560056008556000600960146101000a81548160ff0219169083151502179055506000600a55603c600b55603c600c556005600d5560405180606001604052806038815260200162002a3a60389139600e9080519060200190620000739291906200026d565b50604051806080016040528060428152602001620029be60429139600f9080519060200190620000a59291906200026d565b506040518060600160405280603a815260200162002a00603a913960109080519060200190620000d79291906200026d565b50604051806060016040528060358152602001620029896035913960119080519060200190620001099291906200026d565b507fb8c55b2d11f2e66e744b0369c5a270005fa732f3fcfb002b62e2f715efc768f46012557f6350768aa7a67496e3ea1fde1f01eaca223d78090c3f5736bd2a5255c99951296013557f9ff1c238ba02d8268f07dcd2e5bac117388cfcceeac4c770217a64add435b6af6014557f7aea3c7cd4c8eab4bc81a2b047626393aeb4822b2c0d7466e7f6af5f7da5e8ac601555348015620001a757600080fd5b5060405160408062002a7283398101806040526040811015620001c957600080fd5b810190808051906020019092919080519060200190929190505050816000806101000a81548173ffffffffffffffffffffffffffffffffffffffff021916908373ffffffffffffffffffffffffffffffffffffffff16021790555080600160006101000a81548173ffffffffffffffffffffffffffffffffffffffff021916908373ffffffffffffffffffffffffffffffffffffffff16021790555050506200031c565b828054600181600116156101000203166002900490600052602060002090601f016020900481019282601f10620002b057805160ff1916838001178555620002e1565b82800160010185558215620002e1579182015b82811115620002e0578251825591602001919060010190620002c3565b5b509050620002f09190620002f4565b5090565b6200031991905b8082111562000315576000816000905550600101620002fb565b5090565b90565b61265d806200032c6000396000f3fe6080604052600436106101405760003560e01c80636f0fe789116100b6578063b5cb15f71161006f578063b5cb15f7146109c1578063b7fdcd46146109ec578063de29278914610acb578063e2eb67e514610b22578063e4824c5514610d29578063edcd458114610d5857610140565b80636f0fe7891461080e57806377d69b421461087757806379e45833146108a25780637de94236146108fe578063a7bbd1911461092d578063aef827661461095857610140565b80633dee1b5f116101085780633dee1b5f1461034b5780635376e6fe1461037657806360ee0ab21461063357806366f8af6f146106c35780636a4331b01461072f5780636e1e41ca1461075a57610140565b80630a944d61146101455780630f168b53146101d55780631bcba54d146102005780633bed674f1461022b5780633c457515146102bb575b600080fd5b34801561015157600080fd5b5061015a610d87565b6040518080602001828103825283818151815260200191508051906020019080838360005b8381101561019a57808201518184015260208101905061017f565b50505050905090810190601f1680156101c75780820380516001836020036101000a031916815260200191505b509250505060405180910390f35b3480156101e157600080fd5b506101ea610e29565b6040518082815260200191505060405180910390f35b34801561020c57600080fd5b50610215610e33565b6040518082815260200191505060405180910390f35b34801561023757600080fd5b50610240610e3d565b6040518080602001828103825283818151815260200191508051906020019080838360005b83811015610280578082015181840152602081019050610265565b50505050905090810190601f1680156102ad5780820380516001836020036101000a031916815260200191505b509250505060405180910390f35b3480156102c757600080fd5b506102d0610edf565b6040518080602001828103825283818151815260200191508051906020019080838360005b838110156103105780820151818401526020810190506102f5565b50505050905090810190601f16801561033d5780820380516001836020036101000a031916815260200191505b509250505060405180910390f35b34801561035757600080fd5b50610360610f81565b6040518082815260200191505060405180910390f35b34801561038257600080fd5b5061063160048036036102a081101561039a57600080fd5b810190808035906020019092919080604001906002806020026040519081016040528092919082600260200280828437600081840152601f19601f820116905080830192505050505050919291929080604001906002806020026040519081016040528092919082600260200280828437600081840152601f19601f82011690508083019250505050505091929192908060800190600280602002604051908101604052809291906000905b8282101561049a578382604002016002806020026040519081016040528092919082600260200280828437600081840152601f19601f82011690508083019250505050505081526020019060010190610446565b50505050919291929080604001906002806020026040519081016040528092919082600260200280828437600081840152601f19601f820116905080830192505050505050919291929080604001906002806020026040519081016040528092919082600260200280828437600081840152601f19601f820116905080830192505050505050919291929080604001906002806020026040519081016040528092919082600260200280828437600081840152601f19601f820116905080830192505050505050919291929080604001906002806020026040519081016040528092919082600260200280828437600081840152601f19601f820116905080830192505050505050919291929080604001906002806020026040519081016040528092919082600260200280828437600081840152601f19601f820116905080830192505050505050919291929080604001906002806020026040519081016040528092919082600260200280828437600081840152601f19601f8201169050808301925050505050509192919290505050610f8b565b005b34801561063f57600080fd5b506106486115cb565b6040518080602001828103825283818151815260200191508051906020019080838360005b8381101561068857808201518184015260208101905061066d565b50505050905090810190601f1680156106b55780820380516001836020036101000a031916815260200191505b509250505060405180910390f35b3480156106cf57600080fd5b506106d861166d565b6040518080602001828103825283818151815260200191508051906020019060200280838360005b8381101561071b578082015181840152602081019050610700565b505050509050019250505060405180910390f35b34801561073b57600080fd5b50610744611a34565b6040518082815260200191505060405180910390f35b34801561076657600080fd5b5061080c600480360361010081101561077e57600080fd5b8101908080608001906004806020026040519081016040528092919082600460200280828437600081840152601f19601f820116905080830192505050505050919291929080608001906004806020026040519081016040528092919082600460200280828437600081840152601f19601f8201169050808301925050505050509192919290505050611a3e565b005b34801561081a57600080fd5b5061085d6004803603602081101561083157600080fd5b81019080803573ffffffffffffffffffffffffffffffffffffffff169060200190929190505050611bcd565b604051808215151515815260200191505060405180910390f35b34801561088357600080fd5b5061088c611c2d565b6040518082815260200191505060405180910390f35b6108fc600480360360408110156108b857600080fd5b8101908080356fffffffffffffffffffffffffffffffff16906020019092919080356fffffffffffffffffffffffffffffffff169060200190929190505050611c37565b005b34801561090a57600080fd5b50610913611ed8565b604051808215151515815260200191505060405180910390f35b34801561093957600080fd5b50610942611f30565b6040518082815260200191505060405180910390f35b34801561096457600080fd5b506109a76004803603602081101561097b57600080fd5b81019080803573ffffffffffffffffffffffffffffffffffffffff169060200190929190505050611f3a565b604051808215151515815260200191505060405180910390f35b3480156109cd57600080fd5b506109d6611f9a565b6040518082815260200191505060405180910390f35b610ac96004803603610140811015610a0357600080fd5b8101908080608001906004806020026040519081016040528092919082600460200280828437600081840152601f19601f820116905080830192505050505050919291929080608001906004806020026040519081016040528092919082600460200280828437600081840152601f19601f820116905080830192505050505050919291929080356fffffffffffffffffffffffffffffffff16906020019092919080356fffffffffffffffffffffffffffffffff169060200190929190505050611fa4565b005b348015610ad757600080fd5b50610ae0611fbe565b604051808273ffffffffffffffffffffffffffffffffffffffff1673ffffffffffffffffffffffffffffffffffffffff16815260200191505060405180910390f35b348015610b2e57600080fd5b50610b37611fe8565b604051808a600260200280838360005b83811015610b62578082015181840152602081019050610b47565b5050505090500189600260200280838360005b83811015610b90578082015181840152602081019050610b75565b505050509050018860026000925b81841015610be45782846020020151600260200280838360005b83811015610bd3578082015181840152602081019050610bb8565b505050509050019260010192610b9e565b9250505087600260200280838360005b83811015610c0f578082015181840152602081019050610bf4565b5050505090500186600260200280838360005b83811015610c3d578082015181840152602081019050610c22565b5050505090500185600260200280838360005b83811015610c6b578082015181840152602081019050610c50565b5050505090500184600260200280838360005b83811015610c99578082015181840152602081019050610c7e565b5050505090500183600260200280838360005b83811015610cc7578082015181840152602081019050610cac565b5050505090500180602001828103825283818151815260200191508051906020019060200280838360005b83811015610d0d578082015181840152602081019050610cf2565b505050509050019a505050505050505050505060405180910390f35b348015610d3557600080fd5b50610d3e6122db565b604051808215151515815260200191505060405180910390f35b348015610d6457600080fd5b50610d6d6122f2565b604051808215151515815260200191505060405180910390f35b6060600e8054600181600116156101000203166002900480601f016020809104026020016040519081016040528092919081815260200182805460018160011615610100020316600290048015610e1f5780601f10610df457610100808354040283529160200191610e1f565b820191906000526020600020905b815481529060010190602001808311610e0257829003601f168201915b5050505050905090565b6000601554905090565b6000601354905090565b606060108054600181600116156101000203166002900480601f016020809104026020016040519081016040528092919081815260200182805460018160011615610100020316600290048015610ed55780601f10610eaa57610100808354040283529160200191610ed5565b820191906000526020600020905b815481529060010190602001808311610eb857829003601f168201915b5050505050905090565b606060118054600181600116156101000203166002900480601f016020809104026020016040519081016040528092919081815260200182805460018160011615610100020316600290048015610f775780601f10610f4c57610100808354040283529160200191610f77565b820191906000526020600020905b815481529060010190602001808311610f5a57829003601f168201915b5050505050905090565b6000601254905090565b60008a90506060600280600d540201604051908082528060200260200182016040528015610fc85781602001602082028038833980820191505090505b50905060008090505b600d5481101561115a5760028054905081600d54850201101561114d576000600282600d548602018154811061100357fe5b9060005260206000200160009054906101000a900473ffffffffffffffffffffffffffffffffffffffff169050600360008273ffffffffffffffffffffffffffffffffffffffff1673ffffffffffffffffffffffffffffffffffffffff16815260200190815260200160002060000160019054906101000a90046fffffffffffffffffffffffffffffffff166fffffffffffffffffffffffffffffffff168360028402815181106110b057fe5b602002602001018181525050600360008273ffffffffffffffffffffffffffffffffffffffff1673ffffffffffffffffffffffffffffffffffffffff16815260200190815260200160002060010160009054906101000a90046fffffffffffffffffffffffffffffffff166fffffffffffffffffffffffffffffffff1683600160028502018151811061113f57fe5b602002602001018181525050505b8080600101915050610fd1565b5060008090505b60028110156111a75783816002811061117657fe5b602002015182826002600d5402018151811061118e57fe5b6020026020010181815250508080600101915050611161565b508a60169060026111b99291906123a7565b508960189060026111cb9291906123a7565b5088601a9060026111dd9291906123e7565b5087601e9060026111ef9291906123a7565b508660209060026112019291906123a7565b508560229060026112139291906123a7565b508460249060026112259291906123a7565b508360269060026112379291906123a7565b50806028908051906020019061124e929190612437565b50600160009054906101000a900473ffffffffffffffffffffffffffffffffffffffff1673ffffffffffffffffffffffffffffffffffffffff1663c8e6ba4d8c8c8c8c8c8c8c8c8a6040518a63ffffffff1660e01b8152600401808a600260200280838360005b838110156112d05780820151818401526020810190506112b5565b5050505090500189600260200280838360005b838110156112fe5780820151818401526020810190506112e3565b505050509050018860026000925b818410156113525782846020020151600260200280838360005b83811015611341578082015181840152602081019050611326565b50505050905001926001019261130c565b9250505087600260200280838360005b8381101561137d578082015181840152602081019050611362565b5050505090500186600260200280838360005b838110156113ab578082015181840152602081019050611390565b5050505090500185600260200280838360005b838110156113d95780820151818401526020810190506113be565b5050505090500184600260200280838360005b838110156114075780820151818401526020810190506113ec565b5050505090500183600260200280838360005b8381101561143557808201518184015260208101905061141a565b5050505090500180602001828103825283818151815260200191508051906020019060200280838360005b8381101561147b578082015181840152602081019050611460565b505050509050019a5050505050505050505050602060405180830381600087803b1580156114a857600080fd5b505af11580156114bc573d6000803e3d6000fd5b505050506040513d60208110156114d257600080fd5b810190808051906020019092919050505015611578577f514f94dcac00454772536a03b47be6e03d0d3f036d6ca95df8bb2bf9bdc14a9282600160405180838152602001821515151581526020019250505060405180910390a16001600960146101000a81548160ff0219169083151502179055506115738360006002811061155757fe5b60200201518460016002811061156957fe5b602002015161231f565b6115bd565b7f514f94dcac00454772536a03b47be6e03d0d3f036d6ca95df8bb2bf9bdc14a9282600060405180838152602001821515151581526020019250505060405180910390a15b505050505050505050505050565b6060600f8054600181600116156101000203166002900480601f0160208091040260200160405190810160405280929190818152602001828054600181600116156101000203166002900480156116635780601f1061163857610100808354040283529160200191611663565b820191906000526020600020905b81548152906001019060200180831161164657829003601f168201915b5050505050905090565b6060611677611ed8565b6116cc576040517f08c379a00000000000000000000000000000000000000000000000000000000081526004018080602001828103825260378152602001806125d56037913960400191505060405180910390fd5b6000600d54600d546001600d546002805490500103816116e857fe5b040290506060600982026040519080825280602002602001820160405280156117205781602001602082028038833980820191505090505b50905060008090505b600280549050811015611a2b5760008090505b600481101561189b57600460006002848154811061175657fe5b9060005260206000200160009054906101000a900473ffffffffffffffffffffffffffffffffffffffff1673ffffffffffffffffffffffffffffffffffffffff1673ffffffffffffffffffffffffffffffffffffffff16815260200190815260200160002060010181600481106117c957fe5b015483826009850201815181106117dc57fe5b60200260200101818152505060046000600284815481106117f957fe5b9060005260206000200160009054906101000a900473ffffffffffffffffffffffffffffffffffffffff1673ffffffffffffffffffffffffffffffffffffffff1673ffffffffffffffffffffffffffffffffffffffff168152602001908152602001600020600501816004811061186c57fe5b0154838260046009860201018151811061188257fe5b602002602001018181525050808060010191505061173c565b5060036000600283815481106118ad57fe5b9060005260206000200160009054906101000a900473ffffffffffffffffffffffffffffffffffffffff1673ffffffffffffffffffffffffffffffffffffffff1673ffffffffffffffffffffffffffffffffffffffff16815260200190815260200160002060010160009054906101000a90046fffffffffffffffffffffffffffffffff166fffffffffffffffffffffffffffffffff16700100000000000000000000000000000000600360006002858154811061196757fe5b9060005260206000200160009054906101000a900473ffffffffffffffffffffffffffffffffffffffff1673ffffffffffffffffffffffffffffffffffffffff1673ffffffffffffffffffffffffffffffffffffffff16815260200190815260200160002060000160019054906101000a90046fffffffffffffffffffffffffffffffff166fffffffffffffffffffffffffffffffff160201826008600984020181518110611a1257fe5b6020026020010181815250508080600101915050611729565b50809250505090565b6000601454905090565b60001515600460003373ffffffffffffffffffffffffffffffffffffffff1673ffffffffffffffffffffffffffffffffffffffff16815260200190815260200160002060000160009054906101000a900460ff16151514611b07576040517f08c379a00000000000000000000000000000000000000000000000000000000081526004018080602001828103825260208152602001807f596f75206861766520616c7265616479207375626d6974656420696e7075742181525060200191505060405180910390fd5b604051806060016040528060011515815260200183815260200182815250600460003373ffffffffffffffffffffffffffffffffffffffff1673ffffffffffffffffffffffffffffffffffffffff16815260200190815260200160002060008201518160000160006101000a81548160ff021916908315150217905550602082015181600101906004611b9b929190612484565b50604082015181600501906004611bb3929190612484565b509050506007600081548092919060010191905055505050565b600060011515600360008473ffffffffffffffffffffffffffffffffffffffff1673ffffffffffffffffffffffffffffffffffffffff16815260200190815260200160002060000160009054906101000a900460ff161515149050919050565b6000600754905090565b60001515600360003373ffffffffffffffffffffffffffffffffffffffff1673ffffffffffffffffffffffffffffffffffffffff16815260200190815260200160002060000160009054906101000a900460ff16151514611ce3576040517f08c379a000000000000000000000000000000000000000000000000000000000815260040180806020018281038252602681526020018061260c6026913960400191505060405180910390fd5b6040518060600160405280600115158152602001836fffffffffffffffffffffffffffffffff168152602001826fffffffffffffffffffffffffffffffff16815250600360003373ffffffffffffffffffffffffffffffffffffffff1673ffffffffffffffffffffffffffffffffffffffff16815260200190815260200160002060008201518160000160006101000a81548160ff02191690831515021790555060208201518160000160016101000a8154816fffffffffffffffffffffffffffffffff02191690836fffffffffffffffffffffffffffffffff16021790555060408201518160010160006101000a8154816fffffffffffffffffffffffffffffffff02191690836fffffffffffffffffffffffffffffffff16021790555090505060066000815480929190600101919050555060023390806001815401808255809150509060018203906000526020600020016000909192909190916101000a81548173ffffffffffffffffffffffffffffffffffffffff021916908373ffffffffffffffffffffffffffffffffffffffff1602179055505034600560003373ffffffffffffffffffffffffffffffffffffffff1673ffffffffffffffffffffffffffffffffffffffff168152602001908152602001600020819055506000600a541415611ed45742600a819055505b5050565b6000600960149054906101000a900460ff16158015611f2b57506000600654118015611f075750600754600854145b80611f2a57506000600a54118015611f295750600c54600b54600a5401014210155b5b5b905090565b6000600d54905090565b600060011515600460008473ffffffffffffffffffffffffffffffffffffffff1673ffffffffffffffffffffffffffffffffffffffff16815260200190815260200160002060000160009054906101000a900460ff161515149050919050565b6000600654905090565b611fae8282611c37565b611fb88484611a3e565b50505050565b6000600960009054906101000a900473ffffffffffffffffffffffffffffffffffffffff16905090565b611ff06124c4565b611ff86124c4565b6120006124e6565b6120086124c4565b6120106124c4565b6120186124c4565b6120206124c4565b6120286124c4565b606060166018601a601e6020602260246026602888600280602002604051908101604052809291908260028015612074576020028201915b815481526020019060010190808311612060575b50505050509850876002806020026040519081016040528092919082600280156120b3576020028201915b81548152602001906001019080831161209f575b5050505050975086600280602002604051908101604052809291906000905b8282101561212b57838260020201600280602002604051908101604052809291908260028015612117576020028201915b815481526020019060010190808311612103575b5050505050815260200190600101906120d2565b50505050965085600280602002604051908101604052809291908260028015612169576020028201915b815481526020019060010190808311612155575b50505050509550846002806020026040519081016040528092919082600280156121a8576020028201915b815481526020019060010190808311612194575b50505050509450836002806020026040519081016040528092919082600280156121e7576020028201915b8154815260200190600101908083116121d3575b5050505050935082600280602002604051908101604052809291908260028015612226576020028201915b815481526020019060010190808311612212575b5050505050925081600280602002604051908101604052809291908260028015612265576020028201915b815481526020019060010190808311612251575b50505050509150808054806020026020016040519081016040528092919081815260200182805480156122b757602002820191906000526020600020905b8154815260200190600101908083116122a3575b50505050509050985098509850985098509850985098509850909192939495969798565b6000600960149054906101000a900460ff16905090565b6000600854600654148061231a57506000600a541180156123195750600b54600a54014210155b5b905090565b600082146123a3576002600183038154811061233757fe5b9060005260206000200160009054906101000a900473ffffffffffffffffffffffffffffffffffffffff16600960006101000a81548173ffffffffffffffffffffffffffffffffffffffff021916908373ffffffffffffffffffffffffffffffffffffffff1602179055505b5050565b82600281019282156123d6579160200282015b828111156123d55782518255916020019190600101906123ba565b5b5090506123e39190612513565b5090565b82600280028101928215612426579160200282015b8281111561242557825182906002612415929190612538565b50916020019190600201906123fc565b5b5090506124339190612578565b5090565b828054828255906000526020600020908101928215612473579160200282015b82811115612472578251825591602001919060010190612457565b5b5090506124809190612513565b5090565b82600481019282156124b3579160200282015b828111156124b2578251825591602001919060010190612497565b5b5090506124c09190612513565b5090565b6040518060400160405280600290602082028038833980820191505090505090565b60405180608001604052806002905b6124fd6125a4565b8152602001906001900390816124f55790505090565b61253591905b80821115612531576000816000905550600101612519565b5090565b90565b8260028101928215612567579160200282015b8281111561256657825182559160200191906001019061254b565b5b5090506125749190612513565b5090565b6125a191905b8082111561259d576000818161259491906125c6565b5060020161257e565b5090565b90565b6040518060400160405280600290602082028038833980820191505090505090565b50600081556001016000905556fe4e6f7420616c6c207573657273206f70656e20746865697220696e7075747320616e642069742773206e6f742074696d6564206f75742e596f75206861766520616c7265616479207375626d6974656420636f6d6d69746d656e747321a165627a7a72305820e6dc9e2097d81b3fa979e91fc4fcfa5bd11ba92bbbc5c074356be475d23723cf002968747470733a2f2f73332e616d617a6f6e6177732e636f6d2f6f7269676f2e6578656375746f722f6d6178352f6d6178352e61626968747470733a2f2f73332e616d617a6f6e6177732e636f6d2f6f7269676f2e6578656375746f722f6d6178352f6d6178355f656d7074795f696e7075742e636f646568747470733a2f2f73332e616d617a6f6e6177732e636f6d2f6f7269676f2e6578656375746f722f6d6178352f7661726961626c65732e696e6668747470733a2f2f73332e616d617a6f6e6177732e636f6d2f6f7269676f2e6578656375746f722f6d6178352f70726f76696e672e6b6579a165627a7a723058208c42bdfa3942512a443aea0e7474a85c7c6491cde55a07de569dbbb2bf0de2d60029",
  "source": "pragma solidity ^0.5.0;\n\nimport \"./Auction.sol\";\n\ncontract AuctionFactory {\n  address public owner;\n  address public auctionVerifier;\n  address[] public auctions;\n\n  constructor(address _auctionVerifier) public {\n    owner = msg.sender;\n    auctionVerifier = _auctionVerifier;\n  }\n\n  function create() public {\n    require(msg.sender == owner, \"only owner can create auction.\");\n    Auction newAuction = new Auction(owner, auctionVerifier);\n    auctions.push(address(newAuction));\n  }\n\n  function getContracts() public view returns (address[] memory) {\n    return auctions;\n  }\n}",
  "sourcePath": "/Users/yijiazhang/workspace/frontend_playground/executor_example/frontend/contracts/AuctionFactory.sol",
  "compiler": {
    "name": "solc",
    "version": "0.5.8+commit.23d335f2.Emscripten.clang"
  },
  "schemaVersion": "3.0.16",
  "updatedAt": "2019-10-02T22:16:38.514Z",
  "devdoc": {
    "methods": {}
  },
  "userdoc": {
    "methods": {}
  }
}